:020000040800F2
:10000000E00B002001010008CF280008432300086E
:10001000CD280008150E0008012F00080000000080
:10002000000000000000000000000000512B00084C
:10003000170E0008000000004F2B0008532B00088B
:100040001B0100081B0100081B0100081B01000820
:100050001B0100081B0100081B0100081B01000810
:100060001B0100081B0100081B0100081B01000800
:100070001B0100081B0100081B0100081B010008F0
:100080001B0100081B0100081B0100081B010008E0
:100090001B0100081B0100081B0100081B010008D0
:1000A0001B0100081B0100081B0100081B010008C0
:1000B000B92B00081B0100081B0100081B010008E8
:1000C0001B0100081B0100081B0100081B010008A0
:1000D0001B0100081B010008ED2E00081B01000891
:1000E0001B0100081B0100081B010008DFF80CD0F1
:1000F00000F00CFC00480047C3420008E00B002061
:100100000648804706480047FEE7FEE7FEE7FEE7B1
:10011000FEE7FEE7FEE7FEE7FEE7FEE7B52B000899
:10012000ED000008202A04DB203A21FA02F0002129
:10013000704721FA02F3D040C2F1200291400843F7
:1001400019467047D2B201E000F8012B491EFBD2DC
:1001500070470022F6E710B513460A4604461946D2
:10016000FFF7F0FF204610BD30B505462A460B4686
:1001700012F8010B13F8014B08B1A042F8D01CB1E2
:10018000002802D06D1CF1E7284630BD421C10F853
:10019000011B0029FBD1801A704700000FB400B585
:1001A0008DB010A909900B9000914FF0FF300A908C
:1001B00000200C9005480690054807906A4609A85B
:1001C0000F9900F085F90DB05DF814FBED040008FF
:1001D0000B0500082DE9FF5F1D464FF0FF3BD5E9F9
:1001E000014691465F464FF00008A9697F1C0198BF
:1001F0008847296A824688470028F6D1BAF1FF3F2E
:100200000CD024F4C064002E19DD600614D5BAF1B8
:100210002B0F09D0BAF12D0F0ED103E0584604B0D0
:10022000BDE8F09F44F48064A9697F1C0198884769
:10023000761E8246002E02DDBAF1300F03D0B9F1EE
:10024000000F26D032E0A969761E44F400747F1CAA
:10025000019888478246002E05DDBAF1780F06D056
:10026000BAF1580F03D0B9F1000F10D01EE0B9F168
:10027000000F02D0B9F1100F18D1A969761E24F42D
:1002800000747F1C019888478246102002E00820F5
:1002900000E00A20814609E008FB0908A969761EEA
:1002A00044F400747F1C019888478246002E05DDC7
:1002B0004946504600F0F8F80028EDDAE96901985F
:1002C0008847A00502D46FF00100A8E7E00725D118
:1002D000600613D5600502D5C8F1000000E0404675
:1002E00029680A1D2A600968220501D5087015E0F1
:1002F000220701D5088011E008600FE02868011D81
:1003000029600068210502D580F8008006E02107F9
:1003100002D5A0F8008001E0C0F8008038467EE7F2
:100320002DE9FF5FD2E901A74FF0000891699946D6
:100330001446DDF838B0464601988847054659EA24
:100340000B0005D009E0A169761C01988847054695
:10035000216A284688470028F5D1681C03D05FEA47
:10036000CA7005D015E04FF0FF3004B0BDE8F09F33
:100370002068011D2160D0F800800AE05FEACA70A1
:1003800001D108F8015BA169761C7F1E019888479E
:100390000546002F1ADD681C18D0B9F1000F0DD0EA
:1003A000E81705EBD060421120F01F0059F8221029
:1003B0002A1A012090400142E0D107E0BBF1000F72
:1003C000DCD1216A284688470028D7D0E169019806
:1003D0008847BBF1000F07D1002E05DD5FEACA7028
:1003E00002D1002188F80010A068B84203DDBBF1FB
:1003F000000F03D017B16FF00100B6E73046B4E745
:1004000070B5064602F0C4FD046805460A220021C4
:10041000304600F08BF82C6070BD30B50B460146BD
:1004200000202022012409E021FA02F59D4205D393
:1004300003FA02F5491B04FA02F52844151EA2F13D
:100440000102F1DC30BD2DE9F05F05460020924647
:100450009B4688460646814640241BE02846414686
:1004600047462246FFF75EFE53465A46C01A914160
:1004700010D311461846224600F05AFA2D1A67EB9F
:1004800001084F4622460120002100F051FA17EBE7
:1004900000094E41201EA4F10104DFDC484631462C
:1004A0002A464346BDE8F09F3A2800D2303820F073
:1004B0002002412A01D3A2F13700884201D34FF034
:1004C000FF30704702681144137801601846704786
:1004D000D160044951610449116200211161114642
:1004E00000F056BAC50400087D090008426842B110
:1004F000016811F8013B23B1521EC0E900121846F1
:1005000070470121C160881E704742685AB1C368B4
:10051000016843B983688B4205D0491E521CC0E96B
:100520000012002070474FF0FF3070472DE9F04770
:1005300091460F4680460446002614F8015B2DB113
:1005400000F018FA0068405DC007F6D12B2D02D0EC
:100550002D2D18D0641E4A463946204600F0AEFBC9
:1005600027B13968A14201D1C7F8008071054FF069
:1005700002040BD54042002803DD02F009FD0460AF
:10058000A007BDE8F08746F48066E4E70028F8DAC3
:1005900002F0FEFC04606FF00040F2E72DE9FE4F30
:1005A000804681EA0300C00F0C46009021F0004114
:1005B00023F00045B8EB0200A94105D24046214690
:1005C00090461C460B46024623F00040104347D09D
:1005D000270DC7F30A00C3F30A510290401A019095
:1005E00040286BDAC3F3130040F4801B0098924656
:1005F00020B10023D2EB030A63EB0B0B01985946A1
:10060000C0F14002504600F093F906460D465046B0
:100610005946019A00F09BF910EB08006141002453
:1006200087EA115284EAE7731A4340D0009A62B312
:10063000019A012A4FEA075215DC001B61EB020107
:100640004FF0004202EA0752CDE90042001C41F59A
:10065000801132462B4600F08FFB03B0BDE8F08FCF
:1006600040462146F9E7001B61EB0201001C41F501
:10067000801300185B412018A2F5001747EB030117
:1006800040EAD570B6196D4111E06D084FEA3606A3
:1006900045EAC0754FEA0752001B61EB0201001CDE
:1006A00041F5801149084FEA3000001951413246A6
:1006B0002B4603B0BDE8F04F00F04FBB009801227D
:1006C00040000023D0EB020263EBE0730098214668
:1006D0004FEAE074B8EB000061EB0401E9E783F056
:1006E00000435BE781F0004158E72DE9FE4F81EAC6
:1006F000030404F0004421F0004100944FF0000B8B
:1007000023F0004350EA01045ED052EA03045BD0B8
:10071000C3F30A54C1F30A552C44A4F2F3340194F0
:10072000A0FB0254C1F3130141F48011C3F313037E
:1007300043F4801301FB024400FB034E840A970A32
:1007400044EA815447EA8357A4FB076802958D0A5F
:1007500005FB07854FEA932C04FB0C542705029DEB
:100760004FEA065847EA1637B5EB08056EEB070C5B
:10077000870E920E47EA811742EA8312A7FB020115
:10078000B6EB0B0164EB00042B0D43EA0C335E184F
:1007900044EB1C50DA465146E7FB0201C5F3130453
:1007A0004FEA0B3343EA14534FEA0432019C43EA05
:1007B0000603A4F10C040294009CCDE900B400F0FF
:1007C000DBFA03B0BDE8F08F00200146F9E72DE920
:1007D000F04D81EA030404F0004B21F0004514467B
:1007E0004FF0000A23F0004150EA050220D054EAFD
:1007F00001021DD0C5F30A570246C5F31303C1F326
:100800001300C1F30A5640F4801543F48013A7EB9C
:100810000608101BD64608F2FD3873EB050002D31C
:1008200008F1010801E092185B41B8F1000F03DA0A
:1008300000200146BDE8F08D00204FF480110646EF
:1008400084460EE0171B73EB050705D3121B63EB01
:10085000050306434CEA010C49084FEA30009218A0
:100860005B4150EA0107EDD152EA030012D082EA5F
:10087000040083EA0501084305D0101BAB4106D2F2
:100880000122002306E000224FF0004302E06FF057
:10089000010253101AEB06004CEB085110EB0A0052
:1008A00041EB0B01BDE8F04D00F057BAC1F30A521D
:1008B000C1F3130140F2FF3341F480119A4202DA8E
:1008C00000200146704740F233439A42A2F233427D
:1008D00002DC5242FFF726BC00F02AB830B5041EF5
:1008E00071F1000404DB4FF00044404264EB01016D
:1008F000141E73F1000405DB1C464FF00043524206
:1009000063EB0403994208BF904230BD064C074D8B
:1009100006E0E06840F0010394E8070098471034CF
:10092000AC42F6D3FFF7E6FBFC5800081C59000860
:10093000202A04DB203A00FA02F10020704791409F
:10094000C2F1200320FA03F3194390407047202A94
:1009500006DBCB17203A41FA02F043EAE07306E0E7
:1009600041FA02F3D040C2F12002914008431946F7
:100970007047000000487047F056000810B5044664
:10098000FFF7F8FF0068005D00F0010010BD0000F7
:100990002DE9F34F8BB04FF0000801F10C000C462D
:1009A0004FF0010B46460DF1080A019062690121E2
:1009B00001989047051E2DD0252D2CD0216A8847FF
:1009C000C0B16269012101989047216A88470028D7
:1009D000F7D1411E62690198904700E0761CA16939
:1009E0000B988847216A88470028F7D1E1690B985E
:1009F0008847DBE7A1690B9888470746A84201D1E1
:100A0000761CD3E7E1690B9888477F1C02D1B8F1C7
:100A1000000F6FD046E1002762693D4639460198D4
:100A200090472A2804D16269012101989047012545
:100A3000DFF884926269012101989047A0F13001AA
:100A40000A290AD24F45E5DC07EB870100EB410795
:100A5000303FDFD445F01005ECE7E90601D46FF034
:100A600000476C280AD04C2814D0682815D06A2872
:100A70000DD074281CD07A281AD01DE0626901219B
:100A8000019890476C2802D045F0040514E045F029
:100A900002050DE045F020050AE062690121019898
:100AA0009047682802D045F0080505E045F4006548
:100AB0006269012101989047C4E9015765283DD03A
:100AC00019DC58287AD00CDC452837D004DC2528DE
:100AD00026D0412831D131E046282FD047282CD1CB
:100AE0002CE05B2877D0612828D063287CD064284C
:100AF00023D15AE0D0E06F2848D008DC66281DD00A
:100B000067281BD0692821D06E2816D127E07028CD
:100B100045D0732868D0752847D078280DD14DE08E
:100B2000A1690B988847054625283FF469AFE1691C
:100B30000B9888476D1C3FF46AAFB3E023466A46C2
:100B40006FF001000B99AFF300809EE045F040008C
:100B50006060A80723464FF0000236D43EE0E80765
:100B60007FF447AF2068011D21600068290501D589
:100B700006701BE7290701D5068017E7A90703D5EB
:100B8000F117C0E9006111E706600FE745F040008A
:100B90006060A80723464FF0080216D41EE040F616
:100BA0000E0125EA0100606016E045F0400060603B
:100BB000A80723464FF00A0207D40FE045F0400093
:100BC0006060A80708D5234610226FF001000B993A
:100BD000AFF3008059E007E0234610226FF00100D8
:100BE0000B99FFF7F7FA50E04FF000094F464B46DC
:100BF000632802D05B2806D040E0E80601D401203B
:100C0000A06001273AE062690121019890475E28BF
:100C100005D14FF001096269494601989047216961
:100C200039B900210A46534643F82120491C0829B6
:100C3000FADBB0B3216969B9C11700EBD162531176
:100C40000AEB830122F01F02821A01200B689040F8
:100C500003430B6062690121019890475D28E8D148
:100C6000B9F1000F09D00020514651F82020D2439D
:100C700041F82020401C0828F7DB02AB22460097F1
:100C80006FF001000B99FFF74BFB00280CDA401CBA
:100C900008D1BBF1000F05D04FF0FF300DB0BDE81B
:100CA000F08FFFE74046F9E7E90701D108F10108B5
:100CB00006444FF0000B79E6CCCCCC0C2DE9F05F6C
:100CC00082460078002715468B460AF10104B94692
:100CD000302801D09DB113E014F8010B01277828CA
:100CE00003D0582801D045B10AE00DB1102D07D12D
:100CF0000027102514F8010B02E0082500E00A2562
:100D00000026B0460EE005FB080005FB06F10127B2
:100D100001EB10461FFA80F8B6F5803F00D3B946C4
:100D200014F8010B2946FFF7BFFB0028EBDABBF1F3
:100D3000000F05D00FB1641E00E05446CBF8004010
:100D4000B9F1000F06D002F023F902210160C81E9C
:100D5000BDE8F09F48EA0640FAE710B5141E73F1AB
:100D6000000408DA401C41F1000192185B411A436B
:100D700001D120F0010010BD2DE9F04D92469B46B7
:100D800011B1B1FA81F202E0B0FA80F2203290465D
:100D9000FFF7CEFD04460F4640EA0A0041EA0B0188
:100DA00053465A46084313D0114653EA010019D05E
:100DB000C8F140025046FFF7B5F905460E465046C9
:100DC00059464246FFF7B4FD084305D0012004E030
:100DD00020463946BDE8F08D0020054346EAE0761E
:100DE0002C4337430A986305E40AA0EB080000226D
:100DF000FD0A44EA47540A3002D500200146E9E7DB
:100E0000010510196941DDE9084500196941BDE88E
:100E1000F04DA2E7FEE7704772B6FEE710B590F816
:100E200021100022022905D00421816380F82020AE
:100E3000012010BD01680B6823F00E030B600168F0
:100E40000B6823F001030B6090F84030C46B012164
:100E500001FA03F3636080F8211080F82020104627
:100E600010BD000010B590F821100024022903D015
:100E70000421816301243DE001680A6822F00E022A
:100E80000A6001680A6822F001020A601A4A0168D1
:100E9000914201D1012121E0174A1432914201D13E
:100EA00010211BE0144A2832914201D1891515E026
:100EB000114A3C32914201D189140FE00E4A50325E
:100EC000914202D14FF4803108E00B4A64329142E2
:100ED00002D14FF4801101E04FF08071064A083AC8
:100EE0005160012180F82110002180F82010416B11
:100EF00001B18847204610BD0800024070B5044685
:100F000000F008F90546601C02D00448007804444B
:100F100000F000F9401BA042FAD370BD0000002091
:100F20002DE9F84FDFF8B8910024A9F1040B23460E
:100F30000F2709F1040AABF1040EC9E00125A54011
:100F40002A40AA427DD1674ED1F804C0ACEB060816
:100F5000B44532D014DCBCF1030F3AD009DCBCF14B
:100F6000000F2AD0BCF1010F1CD0BCF1020F31D10F
:100F70001DE0BCF1110F17D0BCF1120F2AD119E0FE
:100F8000B8F5881F19D006DCB8F5803F15D0B8F544
:100F9000801F1FD111E0B8F5001F0ED0B8F5041F57
:100FA00018D10AE0CB6815E0CB681B1D12E0CB68B6
:100FB00008330FE0CB680C330CE08B682BB1012BAE
:100FC0004FF0080303D0456104E0042302E005610B
:100FD00000E00023FF2A01D8064601E000F10406E4
:100FE0004FEA840501D9A5F12005D6F8008007FA5B
:100FF00005FC28EA0C0803FA05F548EA0508C6F8D6
:1010000000804D68ED0062D5374DAE6946F00106AF
:10101000AE61AD6924F0030605F001050095334D7E
:1010200006EB050CDCF80850A607360F07FA06F8A1
:1010300025EA0805DFF8B880404503D14FF00008E5
:1010400017E044E0DFF8AC80404502D14FF00108E2
:101050000FE0DFF8A480404502D14FF0020808E01D
:10106000DFF89880404502D14FF0030801E04FF0CF
:10107000040808FA06F848EA0508CCF808804D6824
:10108000D9F80060ED024D4601D5164300E09643C5
:101090002E604D68DAF80060AD02554601D5164362
:1010A00000E096432E604D68DBF80060AD035D46BE
:1010B00001D5164300E096432E604D68DEF80060CF
:1010C000ED03754601D5164300E096432E60641C7F
:1010D0000D682A46E5407FF431AFBDE8F88F000087
:1010E00008040140000011100010024000000140FF
:1010F00000080140000C01400010014000140140B4
:101100008068084000D0012070470AB10161704733
:101110000904FBE7014880687047000000000020D8
:1011200070B5040025D094F83D00002520B984F85E
:101130003C50204600F04EF9242084F83D00206801
:10114000016821F0010101602068016841F400415B
:1011500001602068016821F40041016000F0A0FAFC
:101160004D4A6168914201D84C4900E04C4988429F
:1011700001D2012070BD4B492368B0FBF1F15E68DC
:1011800026F03F060E435E606368934206D94FF433
:10119000967359434FF47A73B1FBF3F12368491CFA
:1011A0001E6A26F03F06314319626168914210D8E9
:1011B0004900401EB0FBF1F2521CC2F30B02042A9C
:1011C00001D2042022E0B0FBF1F0401CC0F30B0080
:1011D0001CE0A268F2B301EBC10303EB0116431E4E
:1011E000B3FBF6F35B1C43F480431B0549D092B379
:1011F00001EBC10202EB0111401EB0FBF1F0401CFB
:10120000C0F30B0040F4804040F400402168CA69FC
:101210004CF6FF739A431043C861D4E907100143A9
:101220002068026822F0C00211430160D4E9030182
:1012300001432068826848F2FF339A43114381607A
:10124000D4E9050108432168CA6822F0FF0210436F
:10125000C86001E00EE016E02068016841F001017D
:1012600001602564202084F83D00256384F83E5009
:10127000002070BD01EB4106431EB3FBF6F35B1C7F
:10128000B3E70120C2E701EB4101401EB0FBF1F0E2
:10129000401CC0F30B00B7E7A086010080841E004D
:1012A00000093D0040420F002DE9F84F1F469046CF
:1012B0008A460446DDF82890FFF72CFF054694F88F
:1012C0003D0020287FD11923012240492046009566
:1012D00001F0CAF8002876D194F83C00012872D0B9
:1012E000012084F83C0020680168C90703D1016827
:1012F00041F0010101602068016821F40061016092
:10130000212084F83D00102084F83E000026266449
:10131000C4F824806785608D20852D48E0622B46C7
:101320004A465146204601F025F890B920684169A7
:101330008069009036E02A464946204601F03AF995
:1013400050B1206C042804D12068016841F4007178
:1013500001600120BDE8F88F606A216800780861AB
:10136000606A401C6062618D491E6185218D491E45
:1013700089B2218522685369DB435B070BD451B1E5
:1013800000781061606A401C6062608D401E60855C
:10139000208D401E20852A464946204601F038F817
:1013A0000028CED1208D0028C5D154F83D0B01680E
:1013B00041F400710160202004F81E09E677667789
:1013C0000020C7E7FFE70220C4E70000020010008A
:1013D0000000FFFF10B586B000210091019102913D
:1013E000039100681349884222D1134CA06940F050
:1013F0000800A061A069694600F0080004904FF45D
:101400004070009012200190032003900B48FFF7DA
:1014100087FD0B48416841F0E06141F00201416005
:10142000E06940F40010E061E06900F4001004900D
:1014300006B010BD0054004000100240000C0140F6
:1014400000000140024881680278114481607047C1
:1014500000000020074810B5016841F0100101604C
:10146000032000F075F80F2000F006F800F024F8D3
:10147000002010BD0020024070B50D4D04464FF411
:101480007A712878B1FBF0F00A490968B1FBF0F0F5
:1014900000F0DCFA48B9102C07D200222146501E79
:1014A00000F036F800206C6070BD012070BD0000B7
:1014B000000000200C0000200C4808B5816941F0B4
:1014C00001018161816901F001010091C16941F06F
:1014D0008051C161C06900F08050009004484168AB
:1014E00021F0E06141F00071416008BD0010024050
:1014F00000000140002809DB00F01F02012191409B
:101500004009800000F1E020C0F8001170470000A1
:10151000F0B40E4B1B680C46C3F30223C3F107055E
:10152000042D00D90425191D072901D2002300E04C
:10153000DB1E012606FA05F1491E214099409E4016
:10154000761E16403143F0BC01F012BD0CED00E0F8
:10155000064900F0070208684FF6FF03184040EA0A
:101560000220034A10430860704700000CED00E0C1
:101570000000FA052DE9F0470F46050061D0434E03
:10158000306800F00700B84209D2306820F0070048
:1015900038433060306800F00700B84251D1286805
:1015A0003B4C810712D5400703D5606840F4E060EA
:1015B00060602878000703D5606840F46050606080
:1015C0006068A96820F0F000084360602878C007D0
:1015D00028D06868012810D02168022810D0890717
:1015E00000292EDA616821F0030101436160FFF7F1
:1015F00091FD804641F288390DE021688903EFE7CB
:101600008901EDE7FFF786FDA0EB0801494502D906
:101610000320BDE8F0876068696800F00C00B0EB5B
:10162000810FEFD1306800F00700B8420BD9306865
:1016300020F0070038433060306800F00700B842FF
:1016400001D00120E5E72878400705D56068E96802
:1016500020F4E060084360602878000706D56068E1
:10166000296920F4605040EAC100606000F038F859
:101670006168084AC1F30311515CC840064908601B
:1016800006480068FFF7F8FE0020C2E7002002408D
:1016900000100240E24D00080C0000200400002071
:1016A0000448054900684968044AC1F30221515CB5
:1016B000C84070470C00002000100240F24D0008A6
:1016C0000448054900684968044AC1F3C221515CD5
:1016D000C84070470C00002000100240F24D000886
:1016E0000E4A51680E4801F00C03042B11D0082B50
:1016F0000FD10C48C1F38343C903C05C0AD55168BC
:10170000084AC1F34041921E515C054A5043B0FB68
:10171000F1F0704704494843704700000010024050
:1017200000127A00D24D000800093D002DE9F84F63
:10173000040070D02078C04DC00749D06868C0F35D
:101740008100012807D06868C0F38100022809D110
:101750006868C00306D52868800339D5606800280A
:10176000E7D035E06068B0F5803F0BD010B1B0F540
:10177000A02F11D0286820F480302860286820F439
:10178000802002E0286840F480302860606890B1D2
:10179000FFF7C0FC06460AE0286840F48020286075
:1017A000F0E700BFFFF7B6FC801B642873D82868F9
:1017B0008003F7D50CE0FFF7ADFC064605E000BF5F
:1017C000FFF7A8FC801B6428F0D828688003F7D4B2
:1017D00020789A4E80074FF001094FF0000839D564
:1017E000686810F00C0F07D06868C0F38100022809
:1017F00009D16868C00306D42868800714D5206919
:10180000012808D110E02069B0B1C6F80090FFF7B8
:1018100081FC074605E00AE1FFF77CFCC01B0228BB
:10182000C4D828688007F7D52868616920F0F800D7
:1018300040EAC10028600DE0C6F80080FFF76AFCAE
:10184000074604E0FFF766FCC01B022823D828687F
:101850008007F7D4207800072CD57948A169D9B141
:10186000C0F80090FFF756FC074604E0FFF752FC73
:10187000C01B02280FD8686A8007F7D571484FF45B
:10188000FA510068B0FBF1F0009000BF0098411ED3
:101890000091FAD20EE080E0C0F80080FFF73AFC39
:1018A000074604E0FFF736FCC01B022875D8686ABB
:1018B0008007F7D42078400760D5E8690027C0008A
:1018C00008D4E86940F08050E861E869012700F039
:1018D000805000905C480168C90513D401688346B4
:1018E00041F480710160FFF715FC824606E000BFFD
:1018F000FFF710FCA0EB0A0064284ED8DBF80000CC
:10190000C005F5D5E06801280AD008B1052813D034
:10191000286A20F001002862286A20F0040002E012
:10192000286A40F001002862E06841F2883B98B1E3
:10193000FFF7F0FB82460BE0286A40F004002862C3
:10194000EEE700BFFFF7E6FBA0EB0A0159455AD8C6
:10195000286A8007F6D50CE0FFF7DCFB824605E03D
:10196000FFF7D8FBA0EB0A0159454CD8286A80073D
:10197000F6D41FB1E86920F08050E861E06988B3CF
:101980006968C1F38101022944D00228C6F8608049
:1019900004D0FFF7BFFB044638E034E0FFF7BAFBA2
:1019A000074604E0FFF7B6FBC01B02282BD82868C7
:1019B0008001F7D4206AB0F5803F05D16868A1683E
:1019C00020F4003008436860D4E9080108436968DE
:1019D00021F4741108436860C6F86090FFF79AFB21
:1019E000044606E025E000BFFFF794FB001B022839
:1019F00009D828688001F7D51BE000BFFFF78AFBF4
:101A0000001B022802D90320BDE8F88F2868800156
:101A1000F4D40EE00128F7D06868226A00F480311F
:101A2000914204D1616A00F47010884201D0012013
:101A3000EAE70020E8E70000001002400000424210
:101A4000800442420C0000200070004010B5401E8F
:101A5000B0F1807F01D3012010BD4FF0E024606120
:101A60000F21601701F084FA0020A0610720206197
:101A7000002010BD7047704770B590F83C20012AD7
:101A800026D0012480F83C40022280F83D200368E3
:101A90005A689D6822F070060A6832435A600D4BFE
:101AA00002689A4208D0B2F1804F05D00A4B9A42A0
:101AB00002D00A4B9A4204D1496825F080031943A9
:101AC000916080F83D40002180F83C10084670BDD0
:101AD000022070BD002C01400004004000080040BE
:101AE00010B5040003D094F83D0010B107E00120C8
:101AF00010BD002084F83C00204600F01FF80220B2
:101B000084F83D00211D206801F05CF8012084F874
:101B1000460084F83E0084F83F0084F8400084F8D2
:101B2000410084F8420084F8430084F8440084F8BB
:101B3000450084F83D00002010BD000008B5006895
:101B4000B0F1804F12D10A48C16941F00101C16171
:101B5000C069002200F00100009011461C20FFF730
:101B6000D7FCBDE808401C20FFF7C4BC08BD00003E
:101B70000010024090F83D10012901D0012070476B
:101B8000022180F83D100168CA6842F00102CA6073
:101B900000680B49884208D0B0F1804F05D0094950
:101BA000884202D00849884204D1816801F00701C7
:101BB000062903D0016841F001010160002070474F
:101BC000002C0140000400400008004070B50446AD
:101BD00090F83C000025012817D0012684F83C60CD
:101BE000022084F83D002068826822F0770222F407
:101BF0007F4282600868502838D00DDC20284FD002
:101C000005DC90B3102811D14AE0022070BD3028C5
:101C100046D040280AD13BE060282FD070280DD054
:101C2000B0F5805F03D0B0F5005F12D0012584F8D5
:101C30003D60002084F83C00284670BDCB68D1E9A7
:101C40000121206800F0F4FF2068816841F07701ED
:101C500009E0CB68D1E90121206800F0E9FF2068A4
:101C6000816841F480418160E1E719E0CA68496810
:101C7000206800F0EFFF5021206806E0CA6849683C
:101C8000206800F0F8FF6021206800F0DBFFCEE75D
:101C9000CA684968206800F0DDFF40212068F4E749
:101CA000226801461046F0E7704770B504460068A8
:101CB00001694FF00005C943890715D4C168C943BC
:101CC000890711D4E91E016101202077206880690D
:101CD0008007204602D0FFF7E7FF04E000F098F805
:101CE000204600F096F8257720680169C943490726
:101CF00017D4C168C943490713D46FF004010161C7
:101D0000022020772068806910F4407F204602D0AE
:101D1000FFF7CAFF04E000F07BF8204600F079F8F6
:101D2000257720680169C943090716D4C168C943EA
:101D3000090712D46FF008010161042020772068A0
:101D4000C0698007204602D0FFF7AEFF04E000F034
:101D50005FF8204600F05DF8257720680169C943E7
:101D6000C90617D4C168C943C90613D46FF010015E
:101D70000161082020772068C06910F4407F204668
:101D800002D0FFF791FF04E000F042F8204600F097
:101D900040F8257720680169C943C90708D1C1689F
:101DA000C943C90704D1891E0161204600F032F8F9
:101DB00020680169C943090609D4C168C9430906F5
:101DC00005D46FF0800101612046FFF753FE2068C3
:101DD0000169C943490609D4C168C943490605D404
:101DE0006FF040010161204600F034F8206801697D
:101DF000C94389060BD4C168C943890607D46FF06B
:101E0000200101612046BDE87040FFF734BE70BD7F
:101E1000704770470D4900680968884214D10C4822
:101E20004188491C8AB26421B2FBF1F301FB132300
:101E30004280012113B98180C1804170B2F5FA7FDF
:101E400002D301700021418070470000880000200B
:101E5000240000207047704770470000F8B5016803
:101E600004460868CA684B6910F00F0F4FF0000570
:101E700059D003F0010602F49077374365D0C107CB
:101E800005D0D10503D5616C41F0010161644107C2
:101E900005D5D90703D0616C41F002016164810767
:101EA00005D5D90703D0616C41F0040161640107D5
:101EB00007D502F02001314303D0616C41F00801E5
:101EC0006164616C00293AD0800604D5900602D581
:101ED000204600F011FF20684069616CC0F380105B
:101EE000090700D460B3204600F0DFFE2068406997
:101EF000400621D52068143050E8001F21F0400131
:101F000040E80012002AF5D1E06BA8B16D494163A9
:101F1000E06BFEF7A7FF002811D0E06B416B01B02A
:101F2000BDE8F040084783060FD593060DD520463F
:101F3000BDE8F84000F0E0BE2046FFF78DFFF8BD99
:101F40002046FFF789FF6564F8BD266B2023012E2C
:101F50007CD1C6067AD5D60678D508684868009040
:101F600048694FF00206400640D5E16B08684068BA
:101F70000004000CE8D0A28D8242E5D9E085886992
:101F800020282DD020680C3050E8001F21F48071EB
:101F900040E80012002AF5D12068143050E8001FF4
:101FA00021F0010140E80012002AF5D12068143028
:101FB00050E8001F21F0400140E80012002AF5D14E
:101FC00084F84230256320680C3050E8001F21F06F
:101FD000100140E80012002AF5D1E06BFEF71EFF69
:101FE0006663A08DE18D401A81B22AE0A08DE18D5B
:101FF000401A81B2E08D0028A6D00029A4D0226822
:102000000C3252E8000F20F4907042E80007002FD5
:10201000F5D12068143050E8002F22F0010240E88A
:102020000027002FF5D184F84230256320680C305A
:1020300050E8002F22F0100240E80023002BF5D1D9
:1020400066632046FFF707FFF8BDFFE705062BD5BF
:10205000150629D594F841002128F5D1A068B0F5DE
:10206000805F01D12069B0B1206A411C21622168E2
:1020700000784860E08C401E0004000CE084E3D14E
:102080002068C16821F08001C1602068C16841F00A
:102090004001C160D8E7206A0088C0F308004860AA
:1020A000206A801C2062E5E74006CDD55006CBD5DE
:1020B000CA68204622F04002CA6084F8413000F02D
:1020C0003FF9C1E79B2C000870B5040004D094F8D8
:1020D0004100002510B106E0012070BD84F8405099
:1020E000204600F023F8242084F841002068C168CD
:1020F00021F40051C160204600F060FE20680169B3
:1021000021F4904101612068416921F02A01416177
:102110002068C16841F40051C1606564202084F8E2
:10212000410084F842006563002070BD70B586B040
:10213000002400940194029403942B4E03682B49CD
:10214000022003222A4DB34221D18B6943F48043FC
:102150008B618B6903F4804304938B6943F0040320
:102160008B618969039201F0040104910102CDE9B8
:10217000001069462846FEF7D3FE2815CDE9000475
:10218000694628460294FEF7CBFE06B070BD194E94
:10219000B342FAD1CB6943F40033CB61CB6903F48A
:1021A000003304938B6943F004038B6189690392C4
:1021B00001F0040104910421CDE90010694628468C
:1021C000FEF7AEFE0820CDE90004694628460294D9
:1021D000FEF7A6FE002211462620FFF799F92620D9
:1021E000FFF788F9D1E700000038014000100240F5
:1021F00000080140004400402DE9F843044690F8EF
:102200004200994616460D46202802D00220BDE81D
:10221000F883ADB1A6B100206064222184F8421099
:102220002063FEF777FFA6858046E685A0684FF419
:102230008057B84201D1206920B12E46002526E002
:102240000120E4E7002622E0434600222021204628
:10225000CDF8009000F00EFE08B10320D7E726B1BC
:10226000A068B8421BD038B108E020684068C0F3CD
:10227000080025F8020B07E0206980B1206840685B
:1022800000F07F0006F8010BE08D401EE085E08D38
:102290000028D9D1202084F842000020B7E7206828
:1022A0004068EFE770472DE9F843044690F8410095
:1022B0001F4616460D46202802D00220BDE8F883AE
:1022C0007DB176B100206064212084F84100FEF7E2
:1022D00021FFA6848046E684A068B0F5805F02D026
:1022E00003E00120EAE7206910B12E4600250EE048
:1022F00000260CE08021204600F0BCFDA0B9AEB164
:1023000016F8010B21684860E08C401EE084E08CE8
:1023100043464FF0000200970028EBD14FF04001F8
:10232000204600F0A7FD30B10320C7E735F8020BC7
:10233000C0F30800E6E7202084F841000020BDE754
:102340007047FEE701684A69D24352050FD46FF423
:1023500080624A61002140F8301F2022427381735D
:10236000026942F0040202610173012070470020FB
:1023700070470000F8B50446C06A1E460D46174671
:10238000082807D0012805D010F5803F02D0206B27
:10239000122804D12068016841F48071016013465D
:1023A00000224FF001112046009600F05DF840B188
:1023B00020680068C00502D54FF400702064032037
:1023C000F8BD2069B0F5804F0ED00620216800EAE4
:1023D000D51040F0F000086133463A460B492046DC
:1023E00000F08AF878B902E005F0FE0000E0E8B2FB
:1023F00021680861054933463A46891F204600F0A6
:102400007BF80028DCD00120F8BD000008000100A6
:1024100070B516460D4604461EE02046FFF792FFB3
:1024200008B1012070BD681C16D0FEF773FE801B3A
:10243000A84200D885B920684069C04340070BD541
:10244000002044F8300F20216173A073216941F00E
:10245000200121612073E4E720684069C043400700
:10246000DBD4002070BD00002DE9F04798461746E8
:102470000D460446C1F30746DDF820902AE000BF70
:10248000B8F1FF3F26D0FEF745FEA0EB090141451C
:1024900002D8B8F1000F1DD12068012E16D0806936
:1024A00025EA00000004000C12D00020B84211D12F
:1024B000002044F8300F20216173A073216941F09E
:1024C0002001216120730120BDE8F0874069E7E722
:1024D0000120EBE72068012E0AD0806925EA000080
:1024E0000004000C06D00020B842C9D00020EBE761
:1024F0004069F3E70120F7E72DE9F04798461646D3
:102500000D4604464FF000094FF0200AC1F307477B
:1025100023E020684069C043400515D42068016865
:1025200041F40071016021686FF480604861C4F873
:10253000309084F83DA084F83E90216C41F0040175
:10254000216484F83C9021E0701C06D0FEF7E2FD87
:10255000A0EB0800B04203D816B1012F1FD021E034
:102560002068012F15D0806925EA00000004000CC6
:1025700018D000BF44F8309F84F80DA084F80E9066
:10258000216941F02001216184F80C900120BDE80F
:10259000F087406925EA00000004000CEAD12068B9
:1025A000406901E02068806925EA00000004000C11
:1025B000AFD1ECE770B516460D4604461EE0204646
:1025C000FFF7C0FE08B1012070BD681C16D0FEF7F1
:1025D000A1FD801BA84200D885B920684069C0438E
:1025E00000060BD5002044F8300F20216173A07342
:1025F000216941F0200121612073E4E720684069EE
:10260000C0430006DBD4002070BD2DE9FE43060068
:10261000DDE90A75DDF830800ED06AB167B15DB1D1
:1026200061B15BB102A8CDE90005304601F05CFE66
:102630000446012804D017E0052415E0062413E021
:102640000298305C01F010FE012805D10299491C66
:1026500002912968891E29600299B8F1000F31445E
:10266000396001D088F800002046BDE8FE83FEB541
:1026700008AF97E870008DE87000FFF7C6FFFEBD59
:10268000F8B506004FF000000D4600900DD075B172
:102690000A466946304602F02AFA2A46694630461A
:1026A00001F0E0FF28B101240BE0052415E0062429
:1026B00013E02A466946304602F00EF80446012827
:1026C0000BD10098A84208D22A466946304602F04B
:1026D0000EFA0098A84200D002242046F8BD00005F
:1026E0002DE9F04786B000252F4800950195029509
:1026F0000395816941F010018161816901F0100148
:102700000491816941F020018161816901F020011A
:102710000491816941F004018161816901F0040142
:102720000491816941F0080181618069012200F012
:102730000800DFF878905703049039464846FEF7C2
:10274000E4FCDFF86CA04FF40048002241465046FC
:10275000FEF7DBFC01240226CDE90074CDE9024638
:1027600069464846FEF7DCFB01AACDF8008082E806
:10277000700069465046FEF7D3FB002239464846B2
:10278000FEF7C3FCCDE90064CDE90256694609486D
:10279000FEF7C6FB0097CDE9015469465046FEF7A7
:1027A000BFFB06B0BDE8F0870010024000100140FA
:1027B000000C0140000801400D4810B50B490160B4
:1027C0000C49416000214FF480428160C0E903124E
:1027D00041618161C1610162FEF7A2FC002803D062
:1027E000BDE81040FEF718BB10BD000000540040CB
:1027F00034000020A086010010B586B000241648E1
:10280000009401940294039404944FF08041059441
:10281000016041F61F41C0E901146421C0E90314BD
:102820008461FFF75DF908B1FEF7F6FA4FF48050C6
:10283000009069460848FFF7C9F908B1FEF7ECFABD
:10284000049404A904480594FFF716F9002801D060
:10285000FEF7E2FA06B010BD880000200C4810B563
:102860000A4901604FF4E1314160002181600C228E
:10287000C160C0E904128161C161FFF725FC002835
:1028800003D0BDE81040FEF7C7BA10BD00380140C4
:10289000D00000200C4810B50A4901604FF4E13126
:1028A0004160002181600C22C160C0E90412816195
:1028B000C161FFF709FC002803D0BDE81040FEF716
:1028C000ABBA10BD0044004018010020FEE7FEE74F
:1028D00070B5802817D2002915DB3F2913DCCB17F0
:1028E00001EB5375C5F3C70325F007050124094E15
:1028F000491B8C4006EBC000012A05D0C15C022AAE
:1029000005D0A143C15470BDC15C2143FAE76140C9
:10291000F8E70000E003002010B50021AE2001F030
:1029200037FE0021202001F033FE0021102001F0AD
:102930002FFE0021B02001F02BFE0021C82001F065
:1029400027FE0021084601F023FE0021102001F09F
:102950001FFE0021402001F01BFE0021812001F01C
:1029600017FE0021FF2001F013FE0021A12001F03D
:102970000FFE0021A62001F00BFE0021A82001F08F
:1029800007FE00213F2001F003FE0021A42001F0FA
:10299000FFFD0021D32001F0FBFD0021084601F0DE
:1029A000F7FD0021D52001F0F3FD0021F02001F01A
:1029B000EFFD0021D92001F0EBFD0021222001F0E4
:1029C000E7FD0021DA2001F0E3FD0021122001F0F3
:1029D000DFFD0021DB2001F0DBFD0021202001F0E4
:1029E000D7FD00218D2001F0D3FD0021142001F03E
:1029F000CFFD0021BDE81040AF2001F0C9BD0000AF
:102A00000FB4042870B50C46054613D8142C11D801
:102A10000A4E07AA0A483260069900F097FAC4F1F4
:102A20001501074A0020C9B230605054214628469B
:102A300000F072F870BC5DF814FB0000200000206C
:102A40006003002070B50B4E00242146002000F0EA
:102A500013F8002506EBC5000121005D01F098FD8B
:102A60006D1CEDB2802DF5D3641CE4B2082CECD3C0
:102A700070BD0000E003002010B50446B031C8B2BC
:102A8000002101F085FD102040EA1410002101F022
:102A90007FFD04F00F00BDE81040002101F078BD7B
:102AA0002DE9F04F01EB410100EB400049068006A3
:102AB000040E203A4FEA1169D0B2164900EB4000EB
:102AC000A046002501EB800B00261BF805704FFA8D
:102AD00089FA380601D5012200E0002261B2504691
:102AE000FFF7F6FE7806641C070EE4B2A4EB0800BC
:102AF0000C2809D0761CF6B2082EEAD36D1CEDB274
:102B00000C2DE1D3BDE8F08F09F10100444600F03F
:102B1000FF09F3E7FA4D00082DE9F04117460C468E
:102B2000064600250CE021463046FFF7B9FF641C3D
:102B3000E4B2142C02D90024761CF6B26D1CEDB25E
:102B40007A5D002AEFD1BDE8F041FFF77BBF704707
:102B50007047FEF777BC30B58FB028216846FDF787
:102B6000F8FA14210AA8FDF7F4FA01210804CDE9C6
:102B700000100024029402250491CDE907504FF47F
:102B8000E01009906846FEF7D1FD08B172B6FEE785
:102B90000F20CDE90A054FF48060CDE90C400221F9
:102BA0000AA80E94FEF7E6FC002801D072B6FEE7F4
:102BB0000FB030BD704700000148FFF776B8000045
:102BC00088000020F0B50268164B174C174D4FF0E7
:102BD0008047984205D0B84203D0A04201D0A84215
:102BE00003D122F070064A683243984205D0B842B9
:102BF00003D0A04201D0A84203D122F44074CA6895
:102C000022434C6922F08002224302608A68C26239
:102C10000A688262984201D1096901630121416118
:102C2000F0BD0000002C01400004004000080040FE
:102C300010B5846842EA032224F47F440A43224305
:102C4000826010BD826822F070020A4342F00701E0
:102C50008160704710B5036A046A24F001040462BD
:102C6000846924F0F00444EA021423F00A020A43BF
:102C70008461026210BD10B5036A046A24F0100476
:102C80000462846923F0A00324F4704444EA02320D
:102C900043EA01118261016210BD10B5406A002152
:102CA000C185C184FFF7D8F810BD01680C3151E827
:102CB000002F22F4907241E80023002BF5D1016827
:102CC000143151E8002F22F0010241E80023002BCB
:102CD000F5D1016B012909D101680C3151E8002FB0
:102CE00022F0100241E80023002BF5D1202180F8CA
:102CF000421000210163704708B590F84210222964
:102D000001D0022008BD82684FF480539A4201D15D
:102D1000016921B1816A9A421BD04AB10AE0026876
:102D2000816A5268C2F308020A80816A891C08E03D
:102D3000026972B10268526802F07F020A70816A09
:102D4000491C8162C18D491E0904090CC18503D04B
:102D50001BE002685268F1E70168CA6822F02002AD
:102D6000CA600168CA6822F48072CA6001684A6950
:102D700022F001024A61202180F8421000214163C3
:102D8000026B012A03D0FFF78DFA002008BD016312
:102D900001680C3151E8002F22F0100241E80023B5
:102DA000002BF5D101680A68D20602D50A68496885
:102DB0000091818DFFF74FF8E7E7000070B50446FA
:102DC00000680169E26821F4405111430161216901
:102DD000A0680843616908432168CA6841F20C632E
:102DE0009A430243CA6020684169A26921F4407194
:102DF000114341611E492068884202D1FEF760FC00
:102E000001E0FEF74DFC00EBC00101EB0012606831
:102E100064218000B2FBF0F3B3FBF1F36FF018060E
:102E20007343B2FBF0F5B2FBF0F605EB83053223FA
:102E300003EB0515B5FBF1F5B6FBF1F605F0F00572
:102E400005EB0615B2FBF0F6B2FBF0F0B0FBF1F0CB
:102E50006FF01802504306EB800003EB0010B0FB4C
:102E6000F1F0216800F00F002844886070BD000078
:102E7000003801402DE9F041984617460E460446B9
:102E8000069D27E0681C25D02DB1FEF743F9A0EB85
:102E90000800A8421ED920680C3050E8001F21F419
:102EA000D07140E80012002AF5D12068143050E8B3
:102EB000001F21F0010140E80012002AF5D1202076
:102EC00084F8410084F84200002084F84000032088
:102ED000BDE8F0812068006836EA000004D00020D8
:102EE000B842CFD00020F3E70120F9E710B501F098
:102EF00097FEBDE810400148FEF7B0BF1801002062
:102F0000FEE700000FB4054B10B503A9044A029870
:102F100000F014F910BC5DF814FB000051420008E9
:102F20002C0000200FB4084B10B504A902AA039886
:102F300000F004F9044602A9002000F096FC2046A7
:102F400010BC5DF814FB00006B38000837B5144660
:102F50000846064B6A46214600F0F0F804466946EA
:102F6000002000F082FC20463EBD00006B380008C7
:102F70000907090E002804DB00F1E02080F80014A6
:102F8000704700F00F0000F1E02080F8141D70473A
:102F9000004870473000002002E008C8121F08C136
:102FA000002AFAD170477047002001E001C1121FCA
:102FB000002AFBD1704700002DE9FF5F82B000219D
:102FC000DDE90430020DDDF840B0034318D044F6CB
:102FD0001050A2F2FF3242431514119801281FD05D
:102FE000A5EB0B00401C5FEA000A4FF000064E4FB5
:102FF000DFF83891B046504615D5CAF1000413E009
:10300000119801244AA3012801D16FEA0B0102980B
:10301000119AC0E90031C0E9024206B0BDE8F09F54
:10302000CBF10000DFE704460021404A491842EB9B
:103030000450CDE9001012E0E00707D032463B46CD
:1030400040464946FDF751FB8046894632463B469D
:1030500010461946FDF749FB06460F466410002C42
:10306000EAD1DDE90401DDE90023BAF1000F06DA57
:10307000FDF73BFB42464B46FDF737FB05E0FDF70E
:10308000A6FB42464B46FDF7A2FB04460E46002235
:10309000284BFDF723FC03D84FF0FF30014607E033
:1030A0000022254B20463146FDF778FAFDF7FEFB5E
:1030B000102409E0002C0ADB0A220023FDF7C3F9E3
:1030C000039B30321A55641E50EA0102F2D1641C8F
:1030D000039AC4F111031444119A012A03D0012266
:1030E00008430DD10AE0084304D000204FF0110B33
:1030F000119072E7A3EB0B056D1E0DE05B4504DD3F
:103100004FF0000205F1010504E003DA4FF0000280
:10311000A5F10105002AECD002981199C0E902310D
:10312000C0E9004579E70000000014400000F03FCE
:10313000300000000000F0430000E03F2DE9FF4FA9
:1031400095B09B468946064600250FE2252877D193
:1031500000242746F84A0121059400E0044316F8AC
:10316000013F203B01FA03F01042F7D130782A28C2
:1031700011D06FF02F033078A0F13002092A16D851
:10318000059A44F0020402EB820203EB420210446F
:10319000761C0590EFE759F8042B0592002A03DA14
:1031A000504244F40054059044F00204761C3078F8
:1031B0002E2816D116F8010F44F004042A280DD049
:1031C0006FF02F023078A0F13003092B09D807EBFC
:1031D000870302EB4303C718761CF3E759F8047B17
:1031E000761C30786C280FD006DC4C2817D0682865
:1031F0000DD06A2814D104E0742810D07A280FD199
:103200000DE044F400140AE044F4801401E044F4B6
:1032100040147278824202D104F58014761C761C28
:10322000307866280BD013DC582877D009DC0028CA
:1032300075D04528F6D04628F4D047281AD19DE10C
:1032400018E0632835D0642879D0652812D195E13B
:10325000702873D008DC6728F1D069286FD06E28F9
:103260000DD06F2806D1B5E073282CD0752875D005
:10327000782874D05A46179990476D1C75E1C4F3AD
:103280000250022809D003280DD0D9F800100428D4
:103290000DD00D6009F1040967E1D9F80010EA17B3
:1032A000C1E90052F6E7D9F800100D80F2E70D7081
:1032B000F0E719F8041B8DF8001000208DF80100CC
:1032C000EA46012003E059F804AB4FF0FF306107F4
:1032D0004FF0000102D40DE008F101018846B94227
:1032E0000FDA8045F8DB1AF808100029F4D108E05D
:1032F00008F1010188468142FADB1AF8081000291A
:10330000F6D105985B46A0EB080721463846179A88
:1033100000F094FA284400EB080507E04DE029E1AD
:103320000DE01AF8010B5A4617999047B8F10108B9
:10333000F7D25B4621463846179A13E142E00A224B
:103340000092C4F302524FF0000A022A08D059F842
:1033500004CB032A4FEAEC710AD00DE029E02AE001
:1033600009F1070121F00702F2E802C1914609E0E4
:103370000FFA8CFC4FEAEC71042A03D14FFA8CFC53
:103380004FEAEC71002907DA0A460021DCF1000C53
:1033900061EB02012D2202E0220504D52B228DF8DB
:1033A0000420012203E0E20701D02022F7E7904643
:1033B00059E00A2102E010220DE010214FF0000A2E
:1033C00000910BE010224FF0000A44F0040408279B
:1033D000009203E008224FF0000A0092C4F3025268
:1033E000022A05D059F804CB0021032A08D009E0AD
:1033F00009F1070121F00702F2E802C1914605E058
:103400001FFA8CFC042A01D10CF0FF0C4FF00008CD
:10341000220728D5702806D0009B83F0100353EABA
:103420000A0305D00EE040228DF80420012208E0B6
:103430005CEA010206D030228DF804208DF80500E8
:1034400002229046009B83F0080353EA0A030AD144
:103450005CEA010201D1620705D530228DF8042013
:103460004FF001087F1E582804D034A003900EA806
:1034700002900DE036A0F9E753466046009AFCF74B
:10348000E2FF84460398825C0298401E029002701C
:103490005CEA0100F0D1029806A9081A00F1200A9E
:1034A000600702D524F4803400E00127574502DD8F
:1034B000A7EB0A0000E0002000EB0A01009005984D
:1034C0004144401A0590E00306D45B462146179A12
:1034D000059800F0B3F90544002706E001A85A4614
:1034E000C05D179990476D1C7F1C4745F6DBE003D4
:1034F0000CD55B462146179A059800F09FF90544C4
:1035000004E030205A46179990476D1C0099481ED8
:1035100000900029F5DC08E0029802995A460078EC
:10352000491C0291179990476D1CBAF10001AAF14C
:10353000010AF1DC65E10000092801003031323375
:1035400034353637383961626364656600000000DF
:1035500030313233343536373839414243444546C9
:103560000000000000F058F90544761C307800286F
:103570007FF4ECAD19B02846BDE8F08F620700D4A7
:10358000062709F1070222F0070CFCE80223E146B6
:1035900003F000485FEA080C02D00FF2702C0DE037
:1035A0005FEA045C02D50FF2682C07E05FEAC47C96
:1035B00002D00FF2602C01E0AFF2700C4FF0FF3838
:1035C00023F00043CDF850C065280CD006DC452818
:1035D00009D046281DD047283DD13DE0662818D0A7
:1035E00067287ED138E00021112F01DB112000E097
:1035F000781CCDE9000106A90EA8FFF7DDFCDDE986
:103600000F010E9A03910021009207F1010A049123
:103610004DE04FF000400097CDE9011006A90EA83B
:10362000FFF7CAFCDDE90F0203920E9B11990022FD
:10363000DDF80CA00093049211B9791C00EB010A8B
:10364000B7EB0A0004D4C0F1FF3007F1010A04907F
:10365000AAEB0700019044E0012F00DA01270021C6
:10366000112F01DD112000E03846CDE9000106A947
:103670000EA8FFF7A1FCDDE90F010E9A03910021CE
:1036800004910092BA4621070CD40399514500DAFF
:103690008A46BAF1010F05DD009AAAF10101515CD9
:1036A000302908D0B84202DA10F1040F06DA0121FD
:1036B000CDE9011015E0AAF10101E9E7002805DCD8
:1036C000049901440491AAEB000102E0411C514518
:1036D00000DD8A460499401A401C01904FF00040DA
:1036E0000290200704D40198504501DBCDF80480F6
:1036F00000208DF84F0002980DF14F07B0F1004FF8
:1037000025D02B200E9002984FF0020800280CDAEA
:10371000404202902D200E9007E00A210298FCF70B
:103720007CFE3031029007F8011DB8F10001A8F1CC
:103730000108F2DC02980028EFD1791E0E9808707B
:10374000307800F0200040F0450007F8020D12A884
:10375000C01B00F107081498007800B1012000EBAD
:103760000A01019801EBE07105984144401A401E9E
:103770000590E00306D45B462146179A059800F0B1
:103780005DF805441498007818B15A461799904787
:103790006D1CE00324D55B462146179A059800F07E
:1037A0004DF805441CE00498002807DBDDE903011F
:1037B000884203DD0098405C179901E0179930209A
:1037C0005A469047049805F10105401C0490019861
:1037D000401E019004D12E205A46179990476D1C27
:1037E000BAF10001AAF1010ADDDC05E017F8010BCE
:1037F0005A46179990476D1CB8F10001A8F10108CD
:10380000F4DC5B462146179A0598ABE62D000000D4
:103810002B000000200000002DE9F04104460025A7
:103820001E461746880404D405E039462020B047D8
:103830006D1C641EF9D52846BDE8F0812DE9F041E4
:10384000044600251E469046C80301D5302700E0F7
:103850002027880404D505E041463846B0476D1C52
:10386000641EF9D52846BDE8F0810A68531C0B6038
:10387000107070472DE9F04F87B04FF00005DDF86C
:1038800040801E4693460C46070001950495A946C4
:1038900002950FD076B15FEA08000BD00A4601A965
:1038A000384601F024F90198A0422CD2395C5B29FA
:1038B00002D028E0AFF30080401C0190224601A90D
:1038C000384601F014F90DF1080A19E004AB22465C
:1038D00001A93846CDF800A000F0D0FD98B1D94537
:1038E00006D10498306002990125C8F800100AE05A
:1038F000224601A9384601F010F920B109F1010969
:103900000198A042E2D307B02846BDE8F08F02E05C
:103910000821491EFDD2401EFAD2704770B500241E
:1039200000F038F84FF40045124E04E0641CE4B295
:103930000120FFF7ECFF29463046FDF7E1FB10B10F
:10394000642CF3D30FE0642C0DD2002404E0641C3B
:10395000E4B20120FFF7DBFF29463046FDF7D0FB3C
:1039600018B1642C04D3012070BD642CEFD3FAE7A6
:10397000002070BD000C014010B500F091F84FF42C
:103980007A70FDF7BBFA00F08BF8BDE81040FFF746
:10399000C5BF00001FB50020019003904FF4004008
:1039A00000900120029069460148FDF7B9FA1FBD59
:1039B000000C01401FB5002002904FF40040009021
:1039C000012001900320039069460248FDF7A8FA00
:1039D0001FBD0000000C014070B500244FF40045ED
:1039E000134E04E0641CE4B20120FFF790FF294667
:1039F0003046FDF785FB08B1642CF3D3002404E0C6
:103A0000641CE4B20120FFF782FF29463046FDF72F
:103A100077FB08B9642CF3D32820FFF778FF2946F9
:103A20003046FDF76DFB002800D0012070BD00007E
:103A3000000C014070B5002004464006050EFFF75B
:103A4000CBFF641C2843E4B2082CF6D370BD2DE9EB
:103A5000FC410D46064600F023F8FFF75FFF10B16A
:103A60000120BDE8FC8100246F46FFF7E3FF3855D5
:103A7000641CE4B2052CF8D39DF800109DF80100F9
:103A80009DF803300A189DF8020003441A449DF87B
:103A900004309A4201D1297030700020E1E7000023
:103AA00070B5FFF787FF0A4D4FF40044002221460E
:103AB0002846FDF72AFB1420FDF720FA01222146B3
:103AC0002846FDF722FBBDE870401E20FFF71FBF10
:103AD000000C014070B54FF47A7600243346202262
:103AE00010A11948FEF7DFFB184D04E0641CA4B2D6
:103AF0000120FDF703FA287860B1B4420CD24FF4EC
:103B0000FA50FDF7FBF912A11248FCF72DFB18B192
:103B1000002402E0B442E9D30124688801F070F87F
:103B2000204670BD41542B43574A41503D226B6A99
:103B3000706C647A74222C2231313131313131315F
:103B400031220D0A000000001801002010000020A2
:103B50004F4B00006001002070B500244FF47A73D1
:103B6000492212491248FEF79EFB124D4FF4FA66A5
:103B700004E0641CA4B20120FDF7C0F9287860B10C
:103B8000B4420CD241F28830FDF7B8F90AA10B48D3
:103B9000FCF7EAFA18B1002402E0B442E9D90124A2
:103BA000688801F02DF8204670BD000068580008B4
:103BB00018010020100000204F4B00006001002081
:103BC00070B55B480068C16841F02001C16059A030
:103BD000FFF798F900215EA20846FEF711FF4FF4A7
:103BE0007A7402E02046FDF789F964A20D2164A0F1
:103BF00000F084FA0028F5D165A0FFF783F90021D1
:103C000069A20846FEF7FCFE02E02046FDF776F9C1
:103C10005AA206216FA000F071FA0028F5D16FA01A
:103C2000FFF770F9002174A20846FEF7E9FE02E0F2
:103C30002046FDF763F951A211217AA000F05EFA47
:103C40000028F5D17CA0FFF75DF900217FA208468E
:103C5000FEF7D6FE41F2883402E02046FDF74EF929
:103C600000F014FA0028F8D183A0FFF74BF90021E7
:103C700087A20846FEF7C4FE4FF4FA5502E0284634
:103C8000FDF73CF9FFF726FF0028F8D18BA0FFF7DE
:103C900039F900218FA20846FEF7B2FE4FF4FA650B
:103CA00002E02846FDF72AF934A26021944800F08A
:103CB00025FA0028F5D1002192A20846FEF7A0FEC1
:103CC00002E02846FDF71AF92CA25521974800F08A
:103CD00015FA0028F5D196A0FFF714F900219AA251
:103CE0000846FEF78DFE02E02046FDF707F9FFF7D4
:103CF00033FF0028F8D19FA0FFF704F90021A2A20A
:103D00000846FEF77DFE02E02846FDF7F7F81BA205
:103D10004321A64800F0F2F90028F5D1A4A0FFF74E
:103D2000F1F8BDE870400021A7A20846FEF768BE82
:103D300018010020312E53455454494E4720535406
:103D40004154494F4E204D4F44450D0A000000009C
:103D5000312E53455454494E472053544154494FF2
:103D60004E204D4F44452020202020202020202080
:103D70002020202020202020200000004F4B000089
:103D800041542B43574D4F44453D310D0A0000002F
:103D9000322E434C4F53452045535038323636204F
:103DA0004543484F0D0A0000322E434C4F534520E7
:103DB00045535038323636204543484F2020202086
:103DC00020202020202020202020202020202020F3
:103DD00020000000415445300D0A0000332E4E4FA4
:103DE000204155544F20434F4E4E45435420574990
:103DF00046490D0A00000000332E4E4F2041555415
:103E00004F20434F4E4E45435420574946492020AA
:103E100020202020202020202020202020202020A2
:103E20002000000041542B43574155544F434F4EFF
:103E30004E3D300D0A000000342E524553455420AB
:103E4000455350383236360D0A000000342E5245A4
:103E500053455420455350383236362020202020F8
:103E60002020202020202020202020202020202052
:103E70002020202020000000352E434F4E46494789
:103E80002057494649204E4554574F524B0D0A0082
:103E9000352E434F4E4649472057494649204E4507
:103EA00054574F524B20202020202020202020201B
:103EB000202020202020202020000000362E4D51E0
:103EC0005454205553455220434F4E4649470D0AFE
:103ED00000000000362E4D515454205553455220B9
:103EE000434F4E46494720202020202020202020DC
:103EF0002020202020202020202020202000000022
:103F0000F4560008372E4D51545420434C49454E29
:103F10005449442020202020202020202020202020
:103F2000202020202020202020200000585700089A
:103F3000382E434F4E4E454354204D515454204249
:103F4000524F4B45520D0A00382E434F4E4E4543BB
:103F500054204D5154542042524F4B455220202062
:103F60002020202020202020202020202020202051
:103F700020000000392E53554253435249424520F8
:103F8000544F5049430D0A00392E53554253435262
:103F900049424520544F50494320202020202020D2
:103FA000202020202020202020000000B0570008E2
:103FB000302E4553503832363620494E4954204F22
:103FC0004B2121210D0A0000302E45535038323646
:103FD0003620494E4954204F4B21212120202020BA
:103FE0002020202020202020202020200000000051
:103FF00030B5A1B00020209080216846FCF7A9F8D8
:10400000174D2878012824D1A888401CA8800120B9
:10401000FCF774FFA8880528F6D312A11548FCF711
:10402000A3F8B0B16B4620AA13491248FCF7B6F8C2
:104030006A4612A02099FEF765FF6846FCF7A6F8CD
:104040002099884205D1C9B2684600F0B5FA044605
:1040500000E00124688800F0D3FD21B0204630BD87
:10406000100000202B4D5154545355425245435695
:104070003A00000060010020B45800086C656E3AF8
:1040800025642C6D73673A25730D0A0070B5002402
:104090004FF47A73082212A11448FEF704F9144D64
:1040A0004FF4FA6604E0641CA4B20120FCF726FF7A
:1040B000287860B1B4420CD241F28830FCF71EFF80
:1040C0000CA10D48FCF750F818B1002402E0B442EE
:1040D000E9D30124688800F093FD204670BD0000FC
:1040E00041542B5253540D0A0000000018010020C7
:1040F000100000204F4B0000600100202DE9F0412E
:1041000017460A464FF47A7601460025334615488D
:10411000FEF7C9F8144C03E001206D1CFCF7EEFE1D
:10412000207818B1B54204D3012514E0B542F3D389
:10413000FAE74FF4FA75A088401CA0800120FCF734
:10414000DDFEA088A842F6D3022539460748FCF7D1
:104150000BF800B10025608800F052FD2846BDE84C
:10416000F0810000180100201000002060010020F4
:10417000F0B52848C1B000260378274834462749BF
:1041800002786846FEF7CEFE6846FBF7FFFF82B274
:104190004FF47A752B4669462148FEF784F8684645
:1041A000FBF7F4FF82B22B4669461E48FEF77BF808
:1041B0006F101D4D04E0641CA4B20120FCF79EFEAC
:1041C000287818B1BC4204D301261CE0BC42F2D3CB
:1041D000FAE73220FCF792FE14A11548FBF7C4FF62
:1041E00001004FF0000002D0002668700BE06978F3
:1041F000491CC9B26970052905D168700DA0FEF788
:1042000081FEFFF7DDFC688800F0FAFC41B0304623
:10421000F0BD00001800002017000020F45700082F
:1042200018010020D0000020100000204F4B00009B
:10423000600100205245434F4E4E454354204D519E
:1042400054542042524F4B45522121210D0A000067
:1042500013B54FF6FF73012269460248FEF723F8B3
:1042600000981CBDD00000206E2817D006DC222844
:104270000AD05B280CD0662804D10DE0742809D040
:104280007B2803D00220704701207047062070472A
:1042900007207047032070470420704705207047AF
:1042A000A0F16101052902D92031052902D80A317E
:1042B000C8B270473038092801D8C0B27047102002
:1042C0007047FDF7C7F8FEF746FCFEF709FAFEF760
:1042D00073FAFEF791FAFEF7C1FAFEF7DBFA00F087
:1042E000C3FC00F001FDFCE72DE9F04F85B05FEA6B
:1042F000000A4FF00000DDE90E98CDE902101C46DF
:1043000015464FF001070646049037D0ADB35FEA7B
:10431000090033D05FEA080030D071B36CB30DF1FF
:10432000080B0498A04254D2285C5B2804D004985F
:10433000014615B32CBB21E04FF0FF3001900498EB
:1043400001AB401C0490224604A9284600F018FA4C
:104350000198002824DB0498A04221D2295C5D2921
:104360001ED1401C0490CDF800B0DDE901210AEB1C
:10437000060003ABFFF77EFA1DE0FFE7AFF3008016
:10438000401CA04204D22A5C2E2A01D05B2AF7D11D
:10439000814205D2431A02460490601E824201D136
:1043A00006271BE003AACDE9002B6A180AEB0600DA
:1043B000029900F095F850B1039806440498A04281
:1043C000AFD2295C2E29ACD1401C0490A9E7042768
:1043D00004E0C9F800600299C8F8001005B038463A
:1043E000BDE8F08F2DE9FC5F1F46DDE90DB9DDF872
:1043F00030A016460D465FEA000829D045B33EB30B
:1044000037B35FEA0A0023D05FEA0B0020D05FEAEF
:1044100009001DD02C6801A94046019400F0A5FBBD
:10442000002813D0601C386001983246001B801EA3
:10443000CAF8000001A9404600F059FB0198B042BB
:1044400003D218F800103A2904D00020BDE8FC9FE0
:10445000AFF30080401C0190324601A9404600F0B5
:1044600046FB5B46324601A94046CDF8009000F07D
:1044700005F80028EAD001992960E7E72DE9F84F0F
:104480001F46DDF8288091460D465FEA000A4FF08E
:10449000010610D07DB1B9F1000F0CD05FB15FEA19
:1044A000080008D02C684A4669465046009400F03F
:1044B000D9F868B901E0AFF300804A466946504632
:1044C00000F00AF9012803D000263046BDE8F88F35
:1044D0003C600098011BC8F8001000982860F4E7C1
:1044E0002DE9FF4F89B04FF00006DDE916870C4635
:1044F000050003960496059611D00B9878B15FEAF3
:1045000008000CD05FB10A4603A9284600F0EFFA74
:104510000398A04238D2295C7B2902D034E0AFF363
:104520000080401C0390224603A9284600F0DFFAD1
:104530000DF114090DF1100A0DF1180B21E0CDF861
:1045400000B0CDE901A908AB224603A92846FFF730
:1045500049FFC8B1069A0C9890420CD108982918C6
:104560000B9800F033FB30B10499C8F8001005989F
:104570000126386008E0224603A9284600F0CDFA5B
:1045800010B10398A042DAD30DB03046BDE8F08FE9
:1045900008B5074A01B14021117050700A200090FF
:1045A0000223034A78210348FCF77EFE08BD000081
:1045B0001C000020340000202DE9F04119A20E4615
:1045C000804688B007CA05AB002483E807000B25A6
:1045D00031464046FEF754F801280DD103A804A93E
:1045E000CDE9001000272B4605AA02973146404628
:1045F000FEF73DF8012804D0012408B02046BDE8AC
:10460000F081DDE9030305A91D5C1F5408A0039A8E
:10461000FEF778FCDDE903104554FBF7F1FE09498C
:104620000870EAE74C6967687453776974636800D7
:10463000466F756E643A2025732025642D3E202533
:10464000730A000016000020054B4FF400510128AA
:1046500003D001221846FCF758BD0022FAE70000FB
:10466000001001402DE9F84315460E46804600240F
:1046700000F07BFAF8B90427404611A32A463146D8
:10468000009700F012F9B0B9052000900EA32A4659
:104690003146404600F009F968B90DA32A46314673
:1046A0004046009700F001F928B92A4631464046B5
:1046B00000F018F900B101242046BDE8F88300009D
:1046C000747275650000000066616C73650000001F
:1046D0006E756C6C000000002DE9F0438DB017463C
:1046E0000E465FEA00084FF000054FF0FF3405D09A
:1046F00026B11FB13068E946099034E0AFF300807D
:1047000018F80030401C09905B2B06D05D2B0DD0B3
:104710007B2B02D07D2B2ED108E0641C24B2202CF0
:1047200002D009F8043019E003251FE0002C21DD38
:1047300019F804007B2802D05B2803D01BE07D2BF6
:1047400002D018E05D2B16D1641E24B23A4609A9A6
:10475000404600F0E2F930B119F804303A4609A9B0
:10476000404600F096F90998B842C9D30DB02846E2
:10477000BDE8F0830CB10225F8E701253060F5E7CC
:104780002DE9F05F4FF0000A984617460E465FEAA3
:10479000000B554604D01EB117B13468A1461AE08B
:1047A000AFF300801BF80400A0F130010A2914D2F5
:1047B000B8F1000F0ED0002D0CDBFFF771FD0D4995
:1047C00040B28D4204DC05EB850100EB410501E0C0
:1047D0004FF0FF35641CBC42E4D34C4507D94FF081
:1047E000010A3460B8F1000F01D0C8F800505046FB
:1047F000BDE8F09FCBCCCC0C2DE9FC410D4600244C
:1048000048B145B13AB12B68511E8B4223D2C15CED
:104810005C2902D01FE0AFF30080C11849786629F7
:1048200016D00BDC2F2913D003DCA1B122290DD126
:104830000EE05C290CD0622908D109E06E2907D06E
:10484000722905D0742903D0752907D0202902D2F6
:1048500001249B1C2B602046BDE8FC810093804610
:10486000164601AB694600F0DCF80028F3D0BDF82D
:1048700004004FF48067A0F55841B9420ED201AB55
:1048800032466946404600F0CCF80028E3D0BDF837
:104890000400A0F55C40B84204D3DCE7A0F55C401E
:1048A000B842D8D30124009BD4E770B50600049D1C
:1048B0000C464FF0000013D094B18AB183B1216847
:1048C00091420CD2521AAA4209D388192A46194693
:1048D00000F07CF9002802D021682944216070BDD5
:1048E000AFF30080F0B585B00F46050014464FF0D9
:1048F000000609D047B13CB138680390A04207D206
:10490000295C2D2902D003E0AFF30080401C039006
:10491000A0423FD2295C30290FD0002303A92846AA
:10492000FFF72EFF060035D00398224600909042F4
:1049300011D2295C2E2904D00DE00126401C0390E1
:10494000F2E7401C0090002369462846FFF718FF55
:1049500008B100980390039822460090904217D225
:10496000295C652901D0452912D1401C0090904254
:1049700006D2295C2D2901D02B2901D1401C0090A1
:10498000002369462846FFF7FBFE08B10098039014
:104990000398386005B03046F0BDF8B514460D46B2
:1049A000060004D01DB114B12868009033E0AFF3C5
:1049B000008022466946304600F0D7F800282CD007
:1049C00022466946304600F092F80098A04202D292
:1049D000315C3A2921D1401C00902246694630467C
:1049E00000F085F80098A04204D2305C7B2815D0F6
:1049F0005B2813D0224669463046FFF733FE002875
:104A00000BD022466946304600F087F800992960AD
:104A1000002802D00098A042CBD3F8BD00982860AF
:104A2000F8BD2DE9F0474FF0000A99468846060088
:104A300055460FD0B8F1000F0CD05AB1B9F1000FA4
:104A400008D0D8F80040A71D974216D2305D5C28E8
:104A500002D012E0AFF300803019407875280CD1F5
:104A6000A41C08E0305DFFF71BFC102805D040EACD
:104A7000051085B2641CBC42F4D3BC4206D12DB1F2
:104A8000A9F800504FF0010AC8F800405046BDE8B0
:104A9000F087F8B51F4615460C4606467B2B01D01D
:104AA0005B2F10D100F023F85B2F06D02A46214659
:104AB0003046BDE8F840FFF770BF26B11CB115B114
:104AC000206800900EE0AFF300802A466946304629
:104AD000FFF7C8FD40B12A466946304600F01DF890
:104AE00010B10098A842F0D300982060F8BD10B52E
:104AF00018B111B10AB10B680BE0AFF30080C45CD0
:104B0000202C05D0092C03D00A2C01D00D2C02D169
:104B10005B1C9342F3D30B6010BDF8B514460D46F1
:104B200006004FF000070BD055B14CB1FFF7DFFF87
:104B300028680090A04216D2315C2C2902D012E0E5
:104B4000AFF30080401C0090224669463046FFF7D4
:104B5000CEFF0098A04206D2315C7D2903D05D29AA
:104B600001D0012728603846F8BDF8B514460E4636
:104B700005004FF0000727D036B32CB33068009003
:104B8000A0421FD2295C22291CD1401C009017E0B2
:104B9000295C222908D05C290BD0202912D39DB191
:104BA00094B1A042F1D30DE00127401C0090306089
:104BB00008E0224669462846FFF71EFE10B100981D
:104BC000A042E5D33846F8BDAFF3008070B510B110
:104BD00009B1002306E0AFF30080C45CCD5CAC42B9
:104BE00002D15B1C9342F8D3934201D1012070BDE6
:104BF000002070BD0148FCF7BDBF00008800002008
:104C000010B501460448FBF7A4FA04490020488087
:104C10000870888010BD0000600100201000002096
:104C200038B50E4800248DF8004000680068C04385
:104C3000800611D44FF47A73012269460748FDF7C4
:104C4000DBFA0848064B9DF8002041885A54491C5D
:104C5000418001210170848038BD000018010020CE
:104C6000600100201000002010B5FDF755FEFEF792
:104C7000A7FF4FF4FA740AE02046FCF73FF90AA0B8
:104C8000FEF740F900210DA20846FDF7B9FEFEF738
:104C900073FE0028F0D100210DA20846FDF7B0FEFA
:104CA000BDE81040FFF7A6BF646874313120696E1B
:104CB0006974206661696C640D0A0000646874316F
:104CC0003120696E6974206661696C6400000000BF
:104CD0002020416C696261626120436C6F756420C1
:104CE000494F54200000000070B5FFF781F90128FA
:104CF00002D022A0FEF706F9254D002428880128BD
:104D000004D12449481EFEF7A2FE2C80224E214DDC
:104D10003078AD1E012803D12878FFF795FC347058
:104D20001E4E308801280CD16B781DA20021022074
:104D3000FDF766FEAB781CA200210420FDF760FEA3
:104D400034801B480178012906D10470FFF710FA5E
:104D500010B118A0FEF7D6F84FF400511A48FCF72E
:104D6000CFF901461948012905D00122BDE870405C
:104D70000221FCF7CAB90022F8E700006D73672032
:104D800072656365697665206572726F720D0A00DF
:104D90002A00002018000020250000202800002004
:104DA00074656D703A25640068756D693A25640014
:104DB000240000206D73672073656E642065727235
:104DC0006F720D0A00000000000C01400008014055
:104DD000010202030405060708090A0B0C0D0E0F59
:104DE000101000000000000000000102030406078C
:104DF0000809000000000102030400000000000098
:104E0000000000000000000000003F400000000023
:104E100000000000300040003000400000000900A9
:104E20000BC03D000BC03D00090018C024407FE0CE
:104E3000224031800000180024C01B000D80324049
:104E4000018003801C4027401C8007400040100068
:104E500060000000000000000000000000000000F2
:104E60001F80204040200000402020401F80000084
:104E70000000090006001F80060009000000040071
:104E800004003F80040004000000001000600000E7
:104E900000000000000004000400040004000400FE
:104EA00000000000004000000000000000000020A2
:104EB00001C006003800400000001F802040204054
:104EC00020401F800000000010403FC00040000054
:104ED000000018C0214022402440184000001080EB
:104EE0002040244024401B80000002000D001100DF
:104EF0003FC0014000003C802440244024402380E7
:104F000000001F8024402440344003800000300013
:104F1000200027C03800200000001B8024402440CF
:104F200024401B8000001C0022C0224022401F8021
:104F30000000000000000840000000000000000029
:104F400000000460000000000000000004000A00EF
:104F500011002080404009000900090009000900F3
:104F6000000000004040208011000A0004001800EA
:104F7000200023402400180000001F80204027400C
:104F800029401F400000004007C039000F0001C049
:104F9000004020403FC0244024401B8000001F8070
:104FA0002040204020403080000020403FC0204072
:104FB00020401F80000020403FC024402E4030C0D1
:104FC000000020403FC024402E00300000000F00B1
:104FD0001080204022403380020020403FC0040067
:104FE00004003FC02040204020403FC020402040DF
:104FF00000000060202020203FC020002000204032
:105000003FC024400B0030C0204020403FC0204023
:105010000040004000C03FC03C0003C03C003FC017
:10502000000020403FC00C4023003FC020001F80F4
:105030002040204020401F80000020403FC02440EE
:105040002400180000001F802140214020E01FA004
:10505000000020403FC02440260019C0004018C076
:1050600024402440224031800000300020403FC0D6
:1050700020403000000020003F80004000403F8082
:10508000200020003E0001C007003800200038004A
:1050900007C03C0007C038000000204039C00600AF
:1050A00039C0204000002000384007C038402000B0
:1050B0000000304021C02640384020C000000000E1
:1050C00000007FE0402040200000000070000C0045
:1050D0000380004000000000402040207FE00000EE
:1050E0000000000020004000200000000000001030
:1050F0000010001000100010001000000000400020
:10510000000000000000000002800540054003C0D0
:10511000004020003FC00440044003800000000025
:105120000380044004400640000000000380044067
:1051300024403FC00040000003800540054003407C
:105140000000000004401FC0244024402000000054
:1051500002E0055005500650042020403FC00440A6
:10516000040003C000400000044027C000400000CD
:10517000000000100010041027E000000000204094
:105180003FC00140070004C00440204020403FC011
:1051900000400040000007C0040007C0040003C036
:1051A0000000044007C00440040003C000400000A9
:1051B00003800440044003800000041007F0045002
:1051C000044003800000000003800440045007F006
:1051D0000010044007C0024004000400000000006A
:1051E00006400540054004C00000000004001F8088
:1051F000044000400000040007800040044007C055
:1052000000400400070004C00180060004000600FE
:1052100001C0070001C006000000044006C00100F4
:1052200006C0044000000410071004E001800600DE
:1052300004000000044005C00640044000000000D7
:10524000000004007BE0402000000000000000009F
:10525000FFF000000000000040207BE004000000A0
:1052600000004000800040002000200040000000BE
:10527000000000000000000000000000000000002E
:10528000000000000000000000000000000000001E
:10529000000000000000000000000000000000000E
:1052A00000000000000000000000000000000000FE
:1052B000000000000006000000000000001E0000CA
:1052C0000000000000DE00000000000000D8000028
:1052D0000000000000D800000000000000D800001E
:1052E0000000000000DE00000000000000FE0000E2
:1052F0000000000000F60000000000000072000046
:10530000000000000000000000000000007C000021
:105310000000000000FE00000000000000C60000C9
:105320000000000000C600000000000000C60000F1
:105330000000000000FE000000000000007C0000F3
:10534000000000000000000000000000001E00003F
:105350000000000000DE00000000000000D6000099
:105360000000000000D600000000000000D6000091
:105370000000000000D600000000000000DE400039
:105380000000000000FE600000000010006C7000D3
:105390000000003000007800000000F0007C7C007D
:1053A000000007F000FE7E0000003FF000C67F0016
:1053B0000001FFF000C67F80000FFFF000C67FC035
:1053C000007FFFF000FE7FE003FFFFF0007C7FF036
:1053D0003FFFFFF000027FF83FFFFFF000067FFC79
:1053E0003FFFFFF0001E7FFE3FFFFFF000BC7FFF8E
:1053F0003FFFFFF000E07FFFBFFFFF8000F87FFF6F
:10540000FFFFFC00003E7FFFFFFFE000000E7FFF7C
:10541000FFFF000000B87FFFFFF8000000E07FFF03
:10542000FFF0000000FE7FFFFFF00000001E7FFF86
:10543000FFF0000000027FFFFFF0000000007FEFA0
:10544000FFF0020000067FE7FFF00200000E7FE39E
:10545000FFF00200001C7FE1FFF8030000BA7FE0CC
:10546000FFFC030000F67FE07FFE038000E67FE0A4
:105470003FFF038000F67FE03FFF83C0003E7FE0F8
:105480003FFFC3C0000E7FE03FFFE3E000027FE08C
:105490003FFFF3E000007FE03FFFFBF000027FE012
:1054A0003FFFFFF000667FE03FFFFFF800F67FE080
:1054B0003FFFFFF800D67FE03FFFFFFC00D67FF004
:1054C0007FFFFFFC00D67FF8FFF7FFFE00D67FFFCF
:1054D000FFF3FFFE00DE3FFFFFE1FFFF008C3FFF19
:1054E000FFE0FFCF00401FFFFFC07FC780C01FFF4E
:1054F000FFC03FC380C00FFFFF801FC1C0FE07FF7A
:10550000FF000FC0C0FE03FFFE0007C060C001FF28
:10551000FC0003C020C0007FF00001C00086000F27
:10552000800000C0001600000000004000D600000F
:105530000000000000D600000000000000D60000BF
:105540000000000000D600000000000000D60000AF
:105550000000000000D000000000000000C00000BB
:10556000000000000006000000000000001E000017
:105570000000000000DE00000000000000D8000075
:105580000000000000D800000000000000D800006B
:105590000000000000DE00000000000000DE00004F
:1055A0000000000000F60000000000000072000093
:1055B0000000000000000000000000000062000089
:1055C0000000000000F600000000000000F60000EF
:1055D0000000000000D600000000000000D600001F
:1055E0000000000000D600000000000000DE000007
:1055F00000000000008C000000000000000000001F
:10560000000000000000000000000000000000009A
:10561000000000000000000000000000000000008A
:10562000000000000000000000000000000000007A
:10563000000000000000000000000000000000006A
:10564000000000000000000000000000000000005A
:10565000000000000000000000000000000000004A
:1056600000000000000000000000000000000040FA
:105670004040404040404040414141414140404025
:105680004040404040404040404040404040400555
:1056900002020202020202020202020202020220CC
:1056A00020202020202020202002020202020202CC
:1056B00090909090909010101010101010101010EA
:1056C000101010101010101010100202020202022E
:1056D000888888888888080808080808080808084A
:1056E0000808080808080808080802020202400022
:1056F0006F56000841542B4D515454555345524355
:1057000046473D302C312C224E554C4C222C224DFC
:10571000515454266B313766696D6A68526265224E
:105720002C226561373236626532633666346438FE
:105730003534636538363437343639343562356458
:1057400035623631633439616631222C302C302C8D
:1057500022220D0A0000000041542B4D51545443A5
:105760004C49454E5449443D302C22464553413224
:1057700033344642445332347C7365637572656DCD
:105780006F64653D335C2C7369676E6D6574686F1B
:10579000643D686D6163736861315C2C74696D652B
:1057A0007374616D703D3738397C220D0A0000003A
:1057B00041542B4D5154545355423D302C222F739C
:1057C00079732F6B313766696D6A685262652F4D48
:1057D0005154542F7468696E672F736572766963CC
:1057E000652F70726F70657274792F736574222CD7
:1057F000300D0A0041542B4D5154545055423D3008
:105800002C222F6B313766696D6A685262652F4DA5
:105810005154542F757365722F4D515454222C22BC
:105820007B5C22706172616D735C223A7B5C2274D6
:10583000656D705C223A25645C2C5C2268756D692C
:105840005C223A25645C7D5C2C5C2276657273690F
:105850006F6E5C223A5C22312E302E305C227D222B
:105860002C302C300D0A000041542B4D5154544320
:105870004F4E4E3D302C226B313766696D6A68524F
:1058800062652E696F742D61732D6D7174742E6352
:105890006E2D7368616E676861692E616C697975D8
:1058A0006E63732E636F6D222C313838332C310DBB
:1058B0000A0000002B4D5154545355425245435653
:1058C0003A302C222F7379732F6B313766696D6AEA
:1058D000685262652F4D5154542F7468696E672F5A
:1058E000736572766963652F70726F706572747913
:1058F0002F736574222C25642C2573001C59000815
:105900000000002034000000982F000850590008C3
:1059100034000020AC0B0000A82F0008010000009C
:1059200010000000000000000024F400000000004F
:105930000000000000000000000000000000000067
:105940000000000000000000000000000000000057
:04000005080000ED02
:00000001FF
